{
  "contractName": "EthSwap",
  "abi": [
    {
      "inputs": [
        {
          "internalType": "contract ERC20",
          "name": "_token",
          "type": "address"
        }
      ],
      "stateMutability": "nonpayable",
      "type": "constructor"
    },
    {
      "inputs": [],
      "name": "name",
      "outputs": [
        {
          "internalType": "string",
          "name": "",
          "type": "string"
        }
      ],
      "stateMutability": "view",
      "type": "function",
      "constant": true
    },
    {
      "inputs": [],
      "name": "rate",
      "outputs": [
        {
          "internalType": "uint256",
          "name": "",
          "type": "uint256"
        }
      ],
      "stateMutability": "view",
      "type": "function",
      "constant": true
    },
    {
      "inputs": [],
      "name": "token",
      "outputs": [
        {
          "internalType": "contract ERC20",
          "name": "",
          "type": "address"
        }
      ],
      "stateMutability": "view",
      "type": "function",
      "constant": true
    },
    {
      "inputs": [],
      "name": "getThisAddress",
      "outputs": [
        {
          "internalType": "address",
          "name": "",
          "type": "address"
        }
      ],
      "stateMutability": "view",
      "type": "function",
      "constant": true
    },
    {
      "inputs": [],
      "name": "getMsgSender",
      "outputs": [
        {
          "internalType": "address",
          "name": "",
          "type": "address"
        }
      ],
      "stateMutability": "view",
      "type": "function",
      "constant": true
    },
    {
      "inputs": [],
      "name": "getToken",
      "outputs": [
        {
          "internalType": "address",
          "name": "",
          "type": "address"
        }
      ],
      "stateMutability": "view",
      "type": "function",
      "constant": true
    },
    {
      "inputs": [],
      "name": "getSwapBalance",
      "outputs": [
        {
          "internalType": "uint256",
          "name": "",
          "type": "uint256"
        }
      ],
      "stateMutability": "view",
      "type": "function",
      "constant": true
    },
    {
      "inputs": [],
      "name": "getTokenOwner",
      "outputs": [
        {
          "internalType": "address",
          "name": "",
          "type": "address"
        }
      ],
      "stateMutability": "view",
      "type": "function",
      "constant": true
    },
    {
      "inputs": [],
      "name": "buyToken",
      "outputs": [],
      "stateMutability": "payable",
      "type": "function",
      "payable": true
    },
    {
      "inputs": [
        {
          "internalType": "uint256",
          "name": "_amount",
          "type": "uint256"
        }
      ],
      "name": "sellToken",
      "outputs": [],
      "stateMutability": "payable",
      "type": "function",
      "payable": true
    }
  ],
  "bytecode": "0x60806040526040518060400160405280601881526020017f4574685377617020496e7374616e7420457863686172676500000000000000008152506000908051906020019062000051929190620000d2565b5060646002553480156200006457600080fd5b5060405162000fa238038062000fa283398181016040528101906200008a919062000200565b80600160006101000a81548173ffffffffffffffffffffffffffffffffffffffff021916908373ffffffffffffffffffffffffffffffffffffffff1602179055505062000297565b828054620000e09062000261565b90600052602060002090601f01602090048101928262000104576000855562000150565b82601f106200011f57805160ff191683800117855562000150565b8280016001018555821562000150579182015b828111156200014f57825182559160200191906001019062000132565b5b5090506200015f919062000163565b5090565b5b808211156200017e57600081600090555060010162000164565b5090565b600080fd5b600073ffffffffffffffffffffffffffffffffffffffff82169050919050565b6000620001b48262000187565b9050919050565b6000620001c882620001a7565b9050919050565b620001da81620001bb565b8114620001e657600080fd5b50565b600081519050620001fa81620001cf565b92915050565b60006020828403121562000219576200021862000182565b5b60006200022984828501620001e9565b91505092915050565b7f4e487b7100000000000000000000000000000000000000000000000000000000600052602260045260246000fd5b600060028204905060018216806200027a57607f821691505b6020821081141562000291576200029062000232565b5b50919050565b610cfb80620002a76000396000f3fe6080604052600436106100915760003560e01c8063a482171911610059578063a48217191461015e578063b7182b9514610168578063c7b00aad14610193578063d3953822146101be578063fc0c546a146101e957610091565b806306fdde031461009657806321df0da7146100c15780632397e4d7146100ec5780632c4e722e146101085780637a6ce2e114610133575b600080fd5b3480156100a257600080fd5b506100ab610214565b6040516100b89190610825565b60405180910390f35b3480156100cd57600080fd5b506100d66102a2565b6040516100e39190610888565b60405180910390f35b610106600480360381019061010191906108de565b6102cc565b005b34801561011457600080fd5b5061011d610481565b60405161012a919061091a565b60405180910390f35b34801561013f57600080fd5b50610148610487565b6040516101559190610888565b60405180910390f35b61016661048f565b005b34801561017457600080fd5b5061017d610623565b60405161018a9190610888565b60405180910390f35b34801561019f57600080fd5b506101a86106bb565b6040516101b5919061091a565b60405180910390f35b3480156101ca57600080fd5b506101d361075e565b6040516101e09190610888565b60405180910390f35b3480156101f557600080fd5b506101fe610766565b60405161020b9190610994565b60405180910390f35b60008054610221906109de565b80601f016020809104026020016040519081016040528092919081815260200182805461024d906109de565b801561029a5780601f1061026f5761010080835404028352916020019161029a565b820191906000526020600020905b81548152906001019060200180831161027d57829003601f168201915b505050505081565b6000600160009054906101000a900473ffffffffffffffffffffffffffffffffffffffff16905090565b80600160009054906101000a900473ffffffffffffffffffffffffffffffffffffffff1673ffffffffffffffffffffffffffffffffffffffff166370a08231336040518263ffffffff1660e01b81526004016103289190610888565b602060405180830381865afa158015610345573d6000803e3d6000fd5b505050506040513d601f19601f820116820180604052508101906103699190610a25565b101561037457600080fd5b6000600254826103849190610ab0565b90508047101561039357600080fd5b600160009054906101000a900473ffffffffffffffffffffffffffffffffffffffff1673ffffffffffffffffffffffffffffffffffffffff166323b872dd3330856040518463ffffffff1660e01b81526004016103f293929190610ae1565b6020604051808303816000875af1158015610411573d6000803e3d6000fd5b505050506040513d601f19601f820116820180604052508101906104359190610b50565b503373ffffffffffffffffffffffffffffffffffffffff166108fc829081150290604051600060405180830381858888f1935050505015801561047c573d6000803e3d6000fd5b505050565b60025481565b600033905090565b60006002543461049f9190610b7d565b905080600160009054906101000a900473ffffffffffffffffffffffffffffffffffffffff1673ffffffffffffffffffffffffffffffffffffffff166370a08231306040518263ffffffff1660e01b81526004016104fd9190610888565b602060405180830381865afa15801561051a573d6000803e3d6000fd5b505050506040513d601f19601f8201168201806040525081019061053e9190610a25565b101561057f576040517f08c379a000000000000000000000000000000000000000000000000000000000815260040161057690610c23565b60405180910390fd5b600160009054906101000a900473ffffffffffffffffffffffffffffffffffffffff1673ffffffffffffffffffffffffffffffffffffffff1663a9059cbb33836040518363ffffffff1660e01b81526004016105dc929190610c43565b6020604051808303816000875af11580156105fb573d6000803e3d6000fd5b505050506040513d601f19601f8201168201806040525081019061061f9190610b50565b5050565b6000600160009054906101000a900473ffffffffffffffffffffffffffffffffffffffff1673ffffffffffffffffffffffffffffffffffffffff1663b2bdfa7b6040518163ffffffff1660e01b8152600401602060405180830381865afa158015610692573d6000803e3d6000fd5b505050506040513d601f19601f820116820180604052508101906106b69190610c98565b905090565b6000600160009054906101000a900473ffffffffffffffffffffffffffffffffffffffff1673ffffffffffffffffffffffffffffffffffffffff166370a08231336040518263ffffffff1660e01b81526004016107189190610888565b602060405180830381865afa158015610735573d6000803e3d6000fd5b505050506040513d601f19601f820116820180604052508101906107599190610a25565b905090565b600030905090565b600160009054906101000a900473ffffffffffffffffffffffffffffffffffffffff1681565b600081519050919050565b600082825260208201905092915050565b60005b838110156107c65780820151818401526020810190506107ab565b838111156107d5576000848401525b50505050565b6000601f19601f8301169050919050565b60006107f78261078c565b6108018185610797565b93506108118185602086016107a8565b61081a816107db565b840191505092915050565b6000602082019050818103600083015261083f81846107ec565b905092915050565b600073ffffffffffffffffffffffffffffffffffffffff82169050919050565b600061087282610847565b9050919050565b61088281610867565b82525050565b600060208201905061089d6000830184610879565b92915050565b600080fd5b6000819050919050565b6108bb816108a8565b81146108c657600080fd5b50565b6000813590506108d8816108b2565b92915050565b6000602082840312156108f4576108f36108a3565b5b6000610902848285016108c9565b91505092915050565b610914816108a8565b82525050565b600060208201905061092f600083018461090b565b92915050565b6000819050919050565b600061095a61095561095084610847565b610935565b610847565b9050919050565b600061096c8261093f565b9050919050565b600061097e82610961565b9050919050565b61098e81610973565b82525050565b60006020820190506109a96000830184610985565b92915050565b7f4e487b7100000000000000000000000000000000000000000000000000000000600052602260045260246000fd5b600060028204905060018216806109f657607f821691505b60208210811415610a0a57610a096109af565b5b50919050565b600081519050610a1f816108b2565b92915050565b600060208284031215610a3b57610a3a6108a3565b5b6000610a4984828501610a10565b91505092915050565b7f4e487b7100000000000000000000000000000000000000000000000000000000600052601260045260246000fd5b7f4e487b7100000000000000000000000000000000000000000000000000000000600052601160045260246000fd5b6000610abb826108a8565b9150610ac6836108a8565b925082610ad657610ad5610a52565b5b828204905092915050565b6000606082019050610af66000830186610879565b610b036020830185610879565b610b10604083018461090b565b949350505050565b60008115159050919050565b610b2d81610b18565b8114610b3857600080fd5b50565b600081519050610b4a81610b24565b92915050565b600060208284031215610b6657610b656108a3565b5b6000610b7484828501610b3b565b91505092915050565b6000610b88826108a8565b9150610b93836108a8565b9250817fffffffffffffffffffffffffffffffffffffffffffffffffffffffffffffffff0483118215151615610bcc57610bcb610a81565b5b828202905092915050565b7f6572726f72205b315d0000000000000000000000000000000000000000000000600082015250565b6000610c0d600983610797565b9150610c1882610bd7565b602082019050919050565b60006020820190508181036000830152610c3c81610c00565b9050919050565b6000604082019050610c586000830185610879565b610c65602083018461090b565b9392505050565b610c7581610867565b8114610c8057600080fd5b50565b600081519050610c9281610c6c565b92915050565b600060208284031215610cae57610cad6108a3565b5b6000610cbc84828501610c83565b9150509291505056fea26469706673582212200579e7ec955c3bea8d0bc64b1b1d6110cc7e423bd481420948f9c617be44ac7d64736f6c634300080a0033",
  "immutableReferences": {},
  "source": "// SPDX-License-Identifier: MIT\r\npragma solidity ^0.8.10;\r\n\r\nimport \"../node_modules/openzeppelin-solidity/contracts/token/ERC20/ERC20.sol\";\r\n\r\ncontract EthSwap{\r\n    string public name = \"EthSwap Instant Excharge\";\r\n    ERC20 public token;\r\n    uint public rate = 100;\r\n  //  \r\n\r\n    //helpToken CA\r\n    constructor(ERC20 _token){\r\n        token = _token;\r\n    }\r\n    function getThisAddress() public view returns(address){\r\n        return address(this); // this => EthSwap CA\r\n    }\r\n    function getMsgSender() public view returns(address){\r\n        return msg.sender; // EthSwap    \r\n    }\r\n    function getToken() public view returns(address){\r\n        return address(token);\r\n    }\r\n    function getSwapBalance() public view returns(uint){\r\n        return token.balanceOf(msg.sender);   \r\n    }\r\n    function getTokenOwner() public view returns(address){\r\n        return token._owner();\r\n    }\r\n    //Eth -> TOken buy\r\n    //1ETh 1token\r\n    function buyToken() public payable {\r\n        uint256 tokenAmount = msg.value * rate;\r\n        require(token.balanceOf(address(this)) >= tokenAmount,'error [1]');\r\n        token.transfer(msg.sender, tokenAmount);\r\n    }\r\n\r\n    //Token -> Eth sell\r\n    function sellToken(uint256 _amount) public payable{\r\n        //     eth.swap   address.(this)   .\r\n        // token.transfer(address(this), _amount);\r\n        require(token.balanceOf(msg.sender) >= _amount);\r\n        uint256 etherAmount = _amount/rate; //50token > 0.5eth\r\n\r\n        //require node  true/false         .\r\n\r\n        require(address(this).balance >= etherAmount); //ethswap   0.5 ?\r\n        token.transferFrom(msg.sender, address(this), _amount); //token account1 > ethswap 50\r\n        payable(msg.sender).transfer(etherAmount); //ethswap > account 0.5 ether\r\n    }\r\n\r\n}",
  "sourcePath": "C:\\Users\\help\\Documents\\workspace\\2022-07-21 swap\\truffle\\contracts\\ethSwap.sol",
  "compiler": {
    "name": "solc",
    "version": "0.8.10+commit.fc410830.Emscripten.clang"
  },
  "schemaVersion": "3.4.4",
  "updatedAt": "2022-07-22T01:35:51.829Z",
  "networkType": "ethereum",
  "devdoc": {
    "kind": "dev",
    "methods": {},
    "version": 1
  },
  "userdoc": {
    "kind": "user",
    "methods": {},
    "version": 1
  }
}