{
  "contractName": "helpToken",
  "abi": [
    {
      "inputs": [],
      "stateMutability": "nonpayable",
      "type": "constructor"
    },
    {
      "anonymous": false,
      "inputs": [
        {
          "indexed": true,
          "internalType": "address",
          "name": "owner",
          "type": "address"
        },
        {
          "indexed": true,
          "internalType": "address",
          "name": "spender",
          "type": "address"
        },
        {
          "indexed": false,
          "internalType": "uint256",
          "name": "value",
          "type": "uint256"
        }
      ],
      "name": "Approval",
      "type": "event"
    },
    {
      "anonymous": false,
      "inputs": [
        {
          "indexed": true,
          "internalType": "address",
          "name": "from",
          "type": "address"
        },
        {
          "indexed": true,
          "internalType": "address",
          "name": "to",
          "type": "address"
        },
        {
          "indexed": false,
          "internalType": "uint256",
          "name": "value",
          "type": "uint256"
        }
      ],
      "name": "Transfer",
      "type": "event"
    },
    {
      "inputs": [],
      "name": "_name",
      "outputs": [
        {
          "internalType": "string",
          "name": "",
          "type": "string"
        }
      ],
      "stateMutability": "view",
      "type": "function",
      "constant": true
    },
    {
      "inputs": [],
      "name": "_owner",
      "outputs": [
        {
          "internalType": "address",
          "name": "",
          "type": "address"
        }
      ],
      "stateMutability": "view",
      "type": "function",
      "constant": true
    },
    {
      "inputs": [],
      "name": "_symbol",
      "outputs": [
        {
          "internalType": "string",
          "name": "",
          "type": "string"
        }
      ],
      "stateMutability": "view",
      "type": "function",
      "constant": true
    },
    {
      "inputs": [],
      "name": "_totalSupply",
      "outputs": [
        {
          "internalType": "uint256",
          "name": "",
          "type": "uint256"
        }
      ],
      "stateMutability": "view",
      "type": "function",
      "constant": true
    },
    {
      "inputs": [
        {
          "internalType": "address",
          "name": "owner",
          "type": "address"
        },
        {
          "internalType": "address",
          "name": "spender",
          "type": "address"
        }
      ],
      "name": "allowance",
      "outputs": [
        {
          "internalType": "uint256",
          "name": "",
          "type": "uint256"
        }
      ],
      "stateMutability": "view",
      "type": "function",
      "constant": true
    },
    {
      "inputs": [
        {
          "internalType": "address",
          "name": "spender",
          "type": "address"
        },
        {
          "internalType": "uint256",
          "name": "amount",
          "type": "uint256"
        }
      ],
      "name": "approve",
      "outputs": [
        {
          "internalType": "bool",
          "name": "",
          "type": "bool"
        }
      ],
      "stateMutability": "nonpayable",
      "type": "function"
    },
    {
      "inputs": [
        {
          "internalType": "address",
          "name": "account",
          "type": "address"
        }
      ],
      "name": "balanceOf",
      "outputs": [
        {
          "internalType": "uint256",
          "name": "",
          "type": "uint256"
        }
      ],
      "stateMutability": "view",
      "type": "function",
      "constant": true
    },
    {
      "inputs": [],
      "name": "decimals",
      "outputs": [
        {
          "internalType": "uint8",
          "name": "",
          "type": "uint8"
        }
      ],
      "stateMutability": "view",
      "type": "function",
      "constant": true
    },
    {
      "inputs": [
        {
          "internalType": "address",
          "name": "spender",
          "type": "address"
        },
        {
          "internalType": "uint256",
          "name": "subtractedValue",
          "type": "uint256"
        }
      ],
      "name": "decreaseAllowance",
      "outputs": [
        {
          "internalType": "bool",
          "name": "",
          "type": "bool"
        }
      ],
      "stateMutability": "nonpayable",
      "type": "function"
    },
    {
      "inputs": [
        {
          "internalType": "address",
          "name": "spender",
          "type": "address"
        },
        {
          "internalType": "uint256",
          "name": "addedValue",
          "type": "uint256"
        }
      ],
      "name": "increaseAllowance",
      "outputs": [
        {
          "internalType": "bool",
          "name": "",
          "type": "bool"
        }
      ],
      "stateMutability": "nonpayable",
      "type": "function"
    },
    {
      "inputs": [],
      "name": "name",
      "outputs": [
        {
          "internalType": "string",
          "name": "",
          "type": "string"
        }
      ],
      "stateMutability": "view",
      "type": "function",
      "constant": true
    },
    {
      "inputs": [],
      "name": "symbol",
      "outputs": [
        {
          "internalType": "string",
          "name": "",
          "type": "string"
        }
      ],
      "stateMutability": "view",
      "type": "function",
      "constant": true
    },
    {
      "inputs": [],
      "name": "totalSupply",
      "outputs": [
        {
          "internalType": "uint256",
          "name": "",
          "type": "uint256"
        }
      ],
      "stateMutability": "view",
      "type": "function",
      "constant": true
    },
    {
      "inputs": [
        {
          "internalType": "address",
          "name": "to",
          "type": "address"
        },
        {
          "internalType": "uint256",
          "name": "amount",
          "type": "uint256"
        }
      ],
      "name": "transfer",
      "outputs": [
        {
          "internalType": "bool",
          "name": "",
          "type": "bool"
        }
      ],
      "stateMutability": "nonpayable",
      "type": "function"
    },
    {
      "inputs": [
        {
          "internalType": "address",
          "name": "from",
          "type": "address"
        },
        {
          "internalType": "address",
          "name": "to",
          "type": "address"
        },
        {
          "internalType": "uint256",
          "name": "amount",
          "type": "uint256"
        }
      ],
      "name": "transferFrom",
      "outputs": [
        {
          "internalType": "bool",
          "name": "",
          "type": "bool"
        }
      ],
      "stateMutability": "nonpayable",
      "type": "function"
    }
  ],
  "bytecode": "0x60806040526040518060400160405280600981526020017f68656c70546f6b656e0000000000000000000000000000000000000000000000815250600690805190602001906200005192919062000420565b506040518060400160405280600381526020017f48544b0000000000000000000000000000000000000000000000000000000000815250600790805190602001906200009f92919062000420565b50620000b06200029460201b60201c565b600a620000be91906200066a565b620186a0620000ce9190620006bb565b600855348015620000de57600080fd5b5060068054620000ee906200074b565b80601f01602080910402602001604051908101604052809291908181526020018280546200011c906200074b565b80156200016d5780601f1062000141576101008083540402835291602001916200016d565b820191906000526020600020905b8154815290600101906020018083116200014f57829003601f168201915b50505050506007805462000181906200074b565b80601f0160208091040260200160405190810160405280929190818152602001828054620001af906200074b565b8015620002005780601f10620001d45761010080835404028352916020019162000200565b820191906000526020600020905b815481529060010190602001808311620001e257829003601f168201915b505050505033600560006101000a81548173ffffffffffffffffffffffffffffffffffffffff021916908373ffffffffffffffffffffffffffffffffffffffff16021790555081600390805190602001906200025e92919062000420565b5080600490805190602001906200027792919062000420565b5050506200028e336008546200029d60201b60201c565b6200088f565b60006012905090565b600073ffffffffffffffffffffffffffffffffffffffff168273ffffffffffffffffffffffffffffffffffffffff16141562000310576040517f08c379a00000000000000000000000000000000000000000000000000000000081526004016200030790620007e2565b60405180910390fd5b62000324600083836200041660201b60201c565b806002600082825462000338919062000804565b92505081905550806000808473ffffffffffffffffffffffffffffffffffffffff1673ffffffffffffffffffffffffffffffffffffffff16815260200190815260200160002060008282546200038f919062000804565b925050819055508173ffffffffffffffffffffffffffffffffffffffff16600073ffffffffffffffffffffffffffffffffffffffff167fddf252ad1be2c89b69c2b068fc378daa952ba7f163c4a11628f55a4df523b3ef83604051620003f6919062000872565b60405180910390a362000412600083836200041b60201b60201c565b5050565b505050565b505050565b8280546200042e906200074b565b90600052602060002090601f0160209004810192826200045257600085556200049e565b82601f106200046d57805160ff19168380011785556200049e565b828001600101855582156200049e579182015b828111156200049d57825182559160200191906001019062000480565b5b509050620004ad9190620004b1565b5090565b5b80821115620004cc576000816000905550600101620004b2565b5090565b7f4e487b7100000000000000000000000000000000000000000000000000000000600052601160045260246000fd5b60008160011c9050919050565b6000808291508390505b60018511156200055e57808604811115620005365762000535620004d0565b5b6001851615620005465780820291505b80810290506200055685620004ff565b945062000516565b94509492505050565b6000826200057957600190506200064c565b816200058957600090506200064c565b8160018114620005a25760028114620005ad57620005e3565b60019150506200064c565b60ff841115620005c257620005c1620004d0565b5b8360020a915084821115620005dc57620005db620004d0565b5b506200064c565b5060208310610133831016604e8410600b84101617156200061d5782820a905083811115620006175762000616620004d0565b5b6200064c565b6200062c84848460016200050c565b92509050818404811115620006465762000645620004d0565b5b81810290505b9392505050565b6000819050919050565b600060ff82169050919050565b6000620006778262000653565b915062000684836200065d565b9250620006b37fffffffffffffffffffffffffffffffffffffffffffffffffffffffffffffffff848462000567565b905092915050565b6000620006c88262000653565b9150620006d58362000653565b9250817fffffffffffffffffffffffffffffffffffffffffffffffffffffffffffffffff0483118215151615620007115762000710620004d0565b5b828202905092915050565b7f4e487b7100000000000000000000000000000000000000000000000000000000600052602260045260246000fd5b600060028204905060018216806200076457607f821691505b602082108114156200077b576200077a6200071c565b5b50919050565b600082825260208201905092915050565b7f45524332303a206d696e7420746f20746865207a65726f206164647265737300600082015250565b6000620007ca601f8362000781565b9150620007d78262000792565b602082019050919050565b60006020820190508181036000830152620007fd81620007bb565b9050919050565b6000620008118262000653565b91506200081e8362000653565b9250827fffffffffffffffffffffffffffffffffffffffffffffffffffffffffffffffff03821115620008565762000855620004d0565b5b828201905092915050565b6200086c8162000653565b82525050565b600060208201905062000889600083018462000861565b92915050565b61149e806200089f6000396000f3fe608060405234801561001057600080fd5b50600436106100f55760003560e01c806370a0823111610097578063b09f126611610066578063b09f1266146102b0578063b2bdfa7b146102ce578063d28d8852146102ec578063dd62ed3e1461030a576100f5565b806370a082311461020257806395d89b4114610232578063a457c2d714610250578063a9059cbb14610280576100f5565b806323b872dd116100d357806323b872dd14610166578063313ce5671461019657806339509351146101b45780633eaaf86b146101e4576100f5565b806306fdde03146100fa578063095ea7b31461011857806318160ddd14610148575b600080fd5b61010261033a565b60405161010f9190610d2e565b60405180910390f35b610132600480360381019061012d9190610de9565b6103cc565b60405161013f9190610e44565b60405180910390f35b6101506103ef565b60405161015d9190610e6e565b60405180910390f35b610180600480360381019061017b9190610e89565b6103f9565b60405161018d9190610e44565b60405180910390f35b61019e610428565b6040516101ab9190610ef8565b60405180910390f35b6101ce60048036038101906101c99190610de9565b610431565b6040516101db9190610e44565b60405180910390f35b6101ec610468565b6040516101f99190610e6e565b60405180910390f35b61021c60048036038101906102179190610f13565b61046e565b6040516102299190610e6e565b60405180910390f35b61023a6104b6565b6040516102479190610d2e565b60405180910390f35b61026a60048036038101906102659190610de9565b610548565b6040516102779190610e44565b60405180910390f35b61029a60048036038101906102959190610de9565b6105bf565b6040516102a79190610e44565b60405180910390f35b6102b86105e2565b6040516102c59190610d2e565b60405180910390f35b6102d6610670565b6040516102e39190610f4f565b60405180910390f35b6102f4610696565b6040516103019190610d2e565b60405180910390f35b610324600480360381019061031f9190610f6a565b610724565b6040516103319190610e6e565b60405180910390f35b60606003805461034990610fd9565b80601f016020809104026020016040519081016040528092919081815260200182805461037590610fd9565b80156103c25780601f10610397576101008083540402835291602001916103c2565b820191906000526020600020905b8154815290600101906020018083116103a557829003601f168201915b5050505050905090565b6000806103d76107ab565b90506103e48185856107b3565b600191505092915050565b6000600254905090565b6000806104046107ab565b905061041185828561097e565b61041c858585610a0a565b60019150509392505050565b60006012905090565b60008061043c6107ab565b905061045d81858561044e8589610724565b610458919061103a565b6107b3565b600191505092915050565b60085481565b60008060008373ffffffffffffffffffffffffffffffffffffffff1673ffffffffffffffffffffffffffffffffffffffff168152602001908152602001600020549050919050565b6060600480546104c590610fd9565b80601f01602080910402602001604051908101604052809291908181526020018280546104f190610fd9565b801561053e5780601f106105135761010080835404028352916020019161053e565b820191906000526020600020905b81548152906001019060200180831161052157829003601f168201915b5050505050905090565b6000806105536107ab565b905060006105618286610724565b9050838110156105a6576040517f08c379a000000000000000000000000000000000000000000000000000000000815260040161059d90611102565b60405180910390fd5b6105b382868684036107b3565b60019250505092915050565b6000806105ca6107ab565b90506105d7818585610a0a565b600191505092915050565b600780546105ef90610fd9565b80601f016020809104026020016040519081016040528092919081815260200182805461061b90610fd9565b80156106685780601f1061063d57610100808354040283529160200191610668565b820191906000526020600020905b81548152906001019060200180831161064b57829003601f168201915b505050505081565b600560009054906101000a900473ffffffffffffffffffffffffffffffffffffffff1681565b600680546106a390610fd9565b80601f01602080910402602001604051908101604052809291908181526020018280546106cf90610fd9565b801561071c5780601f106106f15761010080835404028352916020019161071c565b820191906000526020600020905b8154815290600101906020018083116106ff57829003601f168201915b505050505081565b6000600160008473ffffffffffffffffffffffffffffffffffffffff1673ffffffffffffffffffffffffffffffffffffffff16815260200190815260200160002060008373ffffffffffffffffffffffffffffffffffffffff1673ffffffffffffffffffffffffffffffffffffffff16815260200190815260200160002054905092915050565b600033905090565b600073ffffffffffffffffffffffffffffffffffffffff168373ffffffffffffffffffffffffffffffffffffffff161415610823576040517f08c379a000000000000000000000000000000000000000000000000000000000815260040161081a90611194565b60405180910390fd5b600073ffffffffffffffffffffffffffffffffffffffff168273ffffffffffffffffffffffffffffffffffffffff161415610893576040517f08c379a000000000000000000000000000000000000000000000000000000000815260040161088a90611226565b60405180910390fd5b80600160008573ffffffffffffffffffffffffffffffffffffffff1673ffffffffffffffffffffffffffffffffffffffff16815260200190815260200160002060008473ffffffffffffffffffffffffffffffffffffffff1673ffffffffffffffffffffffffffffffffffffffff168152602001908152602001600020819055508173ffffffffffffffffffffffffffffffffffffffff168373ffffffffffffffffffffffffffffffffffffffff167f8c5be1e5ebec7d5bd14f71427d1e84f3dd0314c0f7b2291e5b200ac8c7c3b925836040516109719190610e6e565b60405180910390a3505050565b600061098a8484610724565b90507fffffffffffffffffffffffffffffffffffffffffffffffffffffffffffffffff8114610a0457818110156109f6576040517f08c379a00000000000000000000000000000000000000000000000000000000081526004016109ed90611292565b60405180910390fd5b610a0384848484036107b3565b5b50505050565b600073ffffffffffffffffffffffffffffffffffffffff168373ffffffffffffffffffffffffffffffffffffffff161415610a7a576040517f08c379a0000000000000000000000000000000000000000000000000000000008152600401610a7190611324565b60405180910390fd5b600073ffffffffffffffffffffffffffffffffffffffff168273ffffffffffffffffffffffffffffffffffffffff161415610aea576040517f08c379a0000000000000000000000000000000000000000000000000000000008152600401610ae1906113b6565b60405180910390fd5b610af5838383610c8b565b60008060008573ffffffffffffffffffffffffffffffffffffffff1673ffffffffffffffffffffffffffffffffffffffff16815260200190815260200160002054905081811015610b7b576040517f08c379a0000000000000000000000000000000000000000000000000000000008152600401610b7290611448565b60405180910390fd5b8181036000808673ffffffffffffffffffffffffffffffffffffffff1673ffffffffffffffffffffffffffffffffffffffff16815260200190815260200160002081905550816000808573ffffffffffffffffffffffffffffffffffffffff1673ffffffffffffffffffffffffffffffffffffffff1681526020019081526020016000206000828254610c0e919061103a565b925050819055508273ffffffffffffffffffffffffffffffffffffffff168473ffffffffffffffffffffffffffffffffffffffff167fddf252ad1be2c89b69c2b068fc378daa952ba7f163c4a11628f55a4df523b3ef84604051610c729190610e6e565b60405180910390a3610c85848484610c90565b50505050565b505050565b505050565b600081519050919050565b600082825260208201905092915050565b60005b83811015610ccf578082015181840152602081019050610cb4565b83811115610cde576000848401525b50505050565b6000601f19601f8301169050919050565b6000610d0082610c95565b610d0a8185610ca0565b9350610d1a818560208601610cb1565b610d2381610ce4565b840191505092915050565b60006020820190508181036000830152610d488184610cf5565b905092915050565b600080fd5b600073ffffffffffffffffffffffffffffffffffffffff82169050919050565b6000610d8082610d55565b9050919050565b610d9081610d75565b8114610d9b57600080fd5b50565b600081359050610dad81610d87565b92915050565b6000819050919050565b610dc681610db3565b8114610dd157600080fd5b50565b600081359050610de381610dbd565b92915050565b60008060408385031215610e0057610dff610d50565b5b6000610e0e85828601610d9e565b9250506020610e1f85828601610dd4565b9150509250929050565b60008115159050919050565b610e3e81610e29565b82525050565b6000602082019050610e596000830184610e35565b92915050565b610e6881610db3565b82525050565b6000602082019050610e836000830184610e5f565b92915050565b600080600060608486031215610ea257610ea1610d50565b5b6000610eb086828701610d9e565b9350506020610ec186828701610d9e565b9250506040610ed286828701610dd4565b9150509250925092565b600060ff82169050919050565b610ef281610edc565b82525050565b6000602082019050610f0d6000830184610ee9565b92915050565b600060208284031215610f2957610f28610d50565b5b6000610f3784828501610d9e565b91505092915050565b610f4981610d75565b82525050565b6000602082019050610f646000830184610f40565b92915050565b60008060408385031215610f8157610f80610d50565b5b6000610f8f85828601610d9e565b9250506020610fa085828601610d9e565b9150509250929050565b7f4e487b7100000000000000000000000000000000000000000000000000000000600052602260045260246000fd5b60006002820490506001821680610ff157607f821691505b6020821081141561100557611004610faa565b5b50919050565b7f4e487b7100000000000000000000000000000000000000000000000000000000600052601160045260246000fd5b600061104582610db3565b915061105083610db3565b9250827fffffffffffffffffffffffffffffffffffffffffffffffffffffffffffffffff038211156110855761108461100b565b5b828201905092915050565b7f45524332303a2064656372656173656420616c6c6f77616e63652062656c6f7760008201527f207a65726f000000000000000000000000000000000000000000000000000000602082015250565b60006110ec602583610ca0565b91506110f782611090565b604082019050919050565b6000602082019050818103600083015261111b816110df565b9050919050565b7f45524332303a20617070726f76652066726f6d20746865207a65726f2061646460008201527f7265737300000000000000000000000000000000000000000000000000000000602082015250565b600061117e602483610ca0565b915061118982611122565b604082019050919050565b600060208201905081810360008301526111ad81611171565b9050919050565b7f45524332303a20617070726f766520746f20746865207a65726f20616464726560008201527f7373000000000000000000000000000000000000000000000000000000000000602082015250565b6000611210602283610ca0565b915061121b826111b4565b604082019050919050565b6000602082019050818103600083015261123f81611203565b9050919050565b7f45524332303a20696e73756666696369656e7420616c6c6f77616e6365000000600082015250565b600061127c601d83610ca0565b915061128782611246565b602082019050919050565b600060208201905081810360008301526112ab8161126f565b9050919050565b7f45524332303a207472616e736665722066726f6d20746865207a65726f20616460008201527f6472657373000000000000000000000000000000000000000000000000000000602082015250565b600061130e602583610ca0565b9150611319826112b2565b604082019050919050565b6000602082019050818103600083015261133d81611301565b9050919050565b7f45524332303a207472616e7366657220746f20746865207a65726f206164647260008201527f6573730000000000000000000000000000000000000000000000000000000000602082015250565b60006113a0602383610ca0565b91506113ab82611344565b604082019050919050565b600060208201905081810360008301526113cf81611393565b9050919050565b7f45524332303a207472616e7366657220616d6f756e742065786365656473206260008201527f616c616e63650000000000000000000000000000000000000000000000000000602082015250565b6000611432602683610ca0565b915061143d826113d6565b604082019050919050565b6000602082019050818103600083015261146181611425565b905091905056fea26469706673582212205547c6fa87a5b27e904eaf97120b8d271e1a033bb024b83f014183c6a7707ccc64736f6c634300080a0033",
  "immutableReferences": {},
  "source": "// SPDX-License-Identifier: MIT\r\npragma solidity ^0.8.10;\r\n\r\n// import [] from \"../helloworld.sol\"\r\nimport \"../node_modules/openzeppelin-solidity/contracts/token/ERC20/ERC20.sol\";\r\n\r\ncontract helpToken is ERC20{\r\n    string public _name = \"helpToken\";\r\n    string public _symbol = \"HTK\";\r\n    uint256 public _totalSupply = 100000 * (10**decimals());\r\n    constructor() ERC20(_name,_symbol){\r\n        _mint(msg.sender, _totalSupply);\r\n    }\r\n    // swap         \r\n    \r\n}",
  "sourcePath": "C:\\Users\\help\\Documents\\workspace\\2022-07-21 swap\\truffle\\contracts\\helpToken.sol",
  "compiler": {
    "name": "solc",
    "version": "0.8.10+commit.fc410830.Emscripten.clang"
  },
  "schemaVersion": "3.4.4",
  "updatedAt": "2022-07-22T01:35:51.814Z",
  "networkType": "ethereum",
  "devdoc": {
    "kind": "dev",
    "methods": {
      "allowance(address,address)": {
        "details": "See {IERC20-allowance}."
      },
      "approve(address,uint256)": {
        "details": "See {IERC20-approve}. NOTE: If `amount` is the maximum `uint256`, the allowance is not updated on `transferFrom`. This is semantically equivalent to an infinite approval. Requirements: - `spender` cannot be the zero address."
      },
      "balanceOf(address)": {
        "details": "See {IERC20-balanceOf}."
      },
      "decimals()": {
        "details": "Returns the number of decimals used to get its user representation. For example, if `decimals` equals `2`, a balance of `505` tokens should be displayed to a user as `5.05` (`505 / 10 ** 2`). Tokens usually opt for a value of 18, imitating the relationship between Ether and Wei. This is the value {ERC20} uses, unless this function is overridden; NOTE: This information is only used for _display_ purposes: it in no way affects any of the arithmetic of the contract, including {IERC20-balanceOf} and {IERC20-transfer}."
      },
      "decreaseAllowance(address,uint256)": {
        "details": "Atomically decreases the allowance granted to `spender` by the caller. This is an alternative to {approve} that can be used as a mitigation for problems described in {IERC20-approve}. Emits an {Approval} event indicating the updated allowance. Requirements: - `spender` cannot be the zero address. - `spender` must have allowance for the caller of at least `subtractedValue`."
      },
      "increaseAllowance(address,uint256)": {
        "details": "Atomically increases the allowance granted to `spender` by the caller. This is an alternative to {approve} that can be used as a mitigation for problems described in {IERC20-approve}. Emits an {Approval} event indicating the updated allowance. Requirements: - `spender` cannot be the zero address."
      },
      "name()": {
        "details": "Returns the name of the token."
      },
      "symbol()": {
        "details": "Returns the symbol of the token, usually a shorter version of the name."
      },
      "totalSupply()": {
        "details": "See {IERC20-totalSupply}."
      },
      "transfer(address,uint256)": {
        "details": "See {IERC20-transfer}. Requirements: - `to` cannot be the zero address. - the caller must have a balance of at least `amount`."
      },
      "transferFrom(address,address,uint256)": {
        "details": "See {IERC20-transferFrom}. Emits an {Approval} event indicating the updated allowance. This is not required by the EIP. See the note at the beginning of {ERC20}. NOTE: Does not update the allowance if the current allowance is the maximum `uint256`. Requirements: - `from` and `to` cannot be the zero address. - `from` must have a balance of at least `amount`. - the caller must have allowance for ``from``'s tokens of at least `amount`."
      }
    },
    "version": 1
  },
  "userdoc": {
    "kind": "user",
    "methods": {},
    "version": 1
  }
}